:1000000000800020BD0C0000330D0000390D000001
:1000100000000000000000000000000000000000E0
:100020000000000000000000000000003F0D000084
:100030000000000000000000450D00004B0D000016
:100040002D0D00002D0D00002D0D00002D0D0000C8
:100050002D0D00002D0D00002D0D00002D0D0000B8
:100060002D0D00002D0D00002D0D00002D0D0000A8
:100070002D0D00002D0D00002D0D00002D0D000098
:100080002D0D00002D0D00002D0D00002D0D000088
:100090002D0D00002D0D00002D0D00002D0D000078
:1000A0002D0D000000000000000000002D0D0000DC
:1000B0002D0D00002D0D00002D0D00002D0D000058
:1000C00080B582B000AF0200FB1D1A70C046064B1F
:1000D0009B6920221340FAD1034BFA1D12781A6053
:1000E000C046BD4602B080BD0000034080B582B06E
:1000F00000AF78600A00FB1C1A707B68FA1C12784B
:100100001A7001231800BD4602B080BD80B584B0CE
:1001100000AF786039600023FB600AE03A68531C46
:100120003B607B68591C796012781A70FB68013358
:10013000FB603B681B78002BF0D1FB681800BD46C4
:1001400004B080BD90B587B000AFF8607A603B60C6
:100150000B23FB180A1C1A7000237B617B68013B90
:100160007B603B68092B26D93B680A21180000F008
:10017000A5FC03001C007A680B23FB181978F868AB
:100180002300FFF7DFFF03007B617B69FA68D31868
:10019000FB6013E00B23FB181A78FB6811001800B2
:1001A000FFF7A4FFFB680133FB607B6901337B61D0
:1001B0007B68013B7B607B68002BEBDC3B680A21A2
:1001C000180000F001FD0B00DBB23033DAB2FB683F
:1001D00011001800FFF78AFF02007B699B187B6102
:1001E0007B691800BD4607B090BD90B587B000AFE1
:1001F000F8607A603B600B23FB180A1C1A7000231E
:100200007B613B68002B03DA3B685B423B6101E0AA
:100210003B683B617B68013B7B603B69092B2BD9C9
:100220003B68002B12DA3B690A21180000F046FCFB
:1002300003005B421C007A680B23FB181978F868EE
:100240002300FFF7D2FF03007B6110E03B690A2126
:10025000180000F033FC03001C007A680B23FB1825
:100260001978F8682300FFF7C0FF03007B617B6902
:10027000FA68D318FB6029E03B68002B14DA7B682E
:10028000013B7B6010E00B23FB181A78FB68110020
:100290001800FFF72BFFFB680133FB607B6901331C
:1002A0007B617B68013B7B607B68002BEBDC3B6800
:1002B000002B0BDAFB682D211800FFF717FF020057
:1002C0007B699B187B61FB680133FB603B690A21FA
:1002D000180000F079FC0B00DBB23033DAB2FB68B7
:1002E00011001800FFF702FF02007B699B187B6179
:1002F0007B691800BD4607B090BDB0B588B002AFAD
:10030000F86008007A6019000B23FB18021C1A70B1
:100310000A23FB180A1C1A7000237B617B68013BCF
:100320007B60BB6A1B0928D0BB6A1B090A22BA186A
:1003300015787C680B22BA181178F86800932B00A6
:100340002200FFF7DAFF02007B699B187B617B6963
:10035000FA68D318FB6013E00B23FB181A78FB68CC
:1003600011001800FFF7C2FEFB680133FB607B69D8
:1003700001337B617B68013B7B607B68002BEBDC9E
:10038000BB6A0F221340092B0CD8BB6ADBB20F22C9
:100390001340DBB23033DAB2FB6811001800FFF70C
:1003A000A5FE1DE00A23FB181B78002B0CD0BB6AAE
:1003B000DBB20F221340DBB23733DAB2FB68110035
:1003C0001800FFF793FE0BE0BB6ADBB20F2213406D
:1003D000DBB25733DAB2FB6811001800FFF786FE74
:1003E0007B6901337B617B691800BD4606B0B0BDF7
:1003F00090B58BB002AFF860B9607A603B600023C3
:10040000BB6100237B61FB68002B00D1E1E0FB684E
:1004100000221A70DDE07B681B78252B0BD07A68F0
:10042000531C7B60FB68591CF96012781A707B6959
:1004300001337B61CDE07B6801331B78252B0BD129
:10044000FB685A1CFA6025221A707B6802337B60B5
:100450007B6901337B61BCE01F23FB1820221A70EB
:100460001E23FB1800221A707B6801337B607B68B7
:100470001B78302B19D11F23FB1830221A707B6890
:1004800001337B6011E01E217B181B781A1C92003F
:10049000D318DB18DAB27B681B78D318DAB27B1872
:1004A000303A1A707B6801337B607B681B782F2B96
:1004B00003D97B681B78392BE5D91E23FB181A78E2
:1004C0007B69D3181A00BB68934207D2BB68D9B2C4
:1004D0007B69DAB21E23FB188A1A1A707B681B78B4
:1004E000583B202B67D89A00494BD3181B689F466E
:1004F0001E23FB181C783B681A1D3A601A681F23DC
:10050000FB181978F86813002200FFF76EFE03004D
:10051000BB6153E01E23FB181C783B681A1D3A6030
:100520001A681F23FB181978F86813002200FFF7D8
:1005300009FE0300BB6141E01E23FB181C783B68E9
:100540001A1D3A601B681F22BA181178F8680093C8
:1005500000232200FFF7D1FE0300BB612EE01E2323
:10056000FB181C783B681A1D3A601B681F22BA18DA
:100570001178F868009301232200FFF7BEFE030004
:10058000BB611BE03B681A1D3A601A68FB681100EA
:100590001800FFF7BBFD0300BB610FE03B681A1DAD
:1005A0003A601B68DAB2FB6811001800FFF79EFD85
:1005B0000300BB6102E001235B4225E07B6801335D
:1005C0007B60BB69FA68D318FB607A69BB69D31892
:1005D0007B617B681B78002B04D07B69BA689A42E8
:1005E00000D918E77B69BA689A4203D9FB680022F0
:1005F0001A7008E0FB68013BFB60FB6800221A7080
:100600007B69013B7B617B691800BD4609B090BDE9
:10061000D40B000080B584B000AFF860B9607A6098
:100620007B68BA68F8686421FFF7E2FE03001800EF
:10063000BD4604B080BD000090B5A7B000AFF86023
:10064000B9607A601023FB18134A13CA13C313CA84
:1006500013C313CA13C37A68B9683423FB1818008C
:10066000FFF7D8FF0300632B09DD0C4B1B68DA682A
:100670001023FB181100180000F05EF8FEE7FA687E
:100680003423FB181100180000F056F8030018007E
:10069000BD4627B090BDC046580C0000280400207D
:1006A00080B582B000AF78603960064B1B689B68EC
:1006B0003A6879681800FFF7BFFF03001800BD46CD
:1006C00002B080BD280400200FB480B582B000AF16
:1006D0001423FB183B603A683B6911001800FFF7D0
:1006E000DFFF03007B607B681800BD4602B080BC62
:1006F00008BC04B01847000080B582B000AF786035
:1007000039600C4B1B689B683A689A4205D0094BCC
:100710001B68DB683A689A4206D17B68DBB2180036
:10072000FFF7CEFC7B6801E001235B421800BD4669
:1007300002B080BD2804002080B584B000AF78608E
:1007400039600023FB6013E07B681B781A003B686C
:1007500019001000FFF7D0FF0300013302D101237D
:100760005B420AE0FB680133FB607B6801337B601E
:100770007B681B78002BE7D1FB681800BD4604B0EE
:1007800080BD000080B500AF00F02AF800F0C4F88A
:1007900000F060F80C4B1800FFF796FF0B4B1800A9
:1007A000FFF792FF0A4B1800FFF78EFF094B180066
:1007B000FFF78AFF084B1800FFF786FF074B18006A
:1007C000FFF782FFFEE7C0467C0C0000900C0000A3
:1007D0009C0C0000A80C0000AC0C0000B80C000041
:1007E00080B500AF184B01229A6000E0C046164B5E
:1007F0001B68002BFAD0144B81225200DA60124B96
:10080000DA69114B08210A43DA61104B1A680F4B61
:1008100038218A431A600D4B1A680C4B10210A4389
:100820001A60094B0A4A5A6000E0C046064B1B6832
:1008300002221340F9D0044BDA68034B04210A4327
:10084000DA60C046BD4680BD000002400080014025
:100850000407000080B584B000AF2B4BDA692A4B47
:10086000802109040A43DA613B1D0022DA703B1D36
:1008700000221A713B1D00225A713B1D00229A7101
:100880003B1D0022DA713B1D01221A723B1D03221F
:100890005A723B1D01229A723B1D01229A703B1D28
:1008A00008221A803B1D194A1900100000F048F870
:1008B0003B1D00229A703B1D10221A803B1D134ADB
:1008C0001900100000F03CF80F4BDA690E4B402184
:1008D0000A43DA610C4B9A6A0B4B802149040A43A4
:1008E0009A620B4B45225A62094B1C229A62084BB2
:1008F0006022DA62064B1A6B054B06490A431A63FB
:10090000C046BD4604B080BD0000024000800B40E0
:10091000000003400103000080B500AF62B6074944
:10092000C0235B0001225242CA50044980220123A5
:100930005B428B50C046BD4680BDC04600E100E032
:1009400080B58EB000AF786039607B685B687B6390
:100950007B689B683B637B68DB68FB627B681B6929
:10096000BB627B685B697B627B689B693B627B687F
:10097000DB69FB6100237B6101233B610323FB6097
:100980004D4BBB603B681B88BB6178E0BB690122B3
:10099000134065D03B69DB437A6B13403A68927829
:1009A00011007A6991400A0013437B63FB68DB43C3
:1009B0003A6B13403A68127A11007A6952009140FA
:1009C0000A0013433B633B69DB43FA6A13403A680E
:1009D000927A11007A6991400A001343FB62BB6866
:1009E000DB43BA6A13403A68D27811007A69103250
:1009F00091400A0013433A68127911007A699140D4
:100A00000A001343BB62BB68DB437A6A13403A684F
:100A1000527911007A69103291400A0013433A6802
:100A2000927911007A6991400A0013437B62FB6856
:100A3000DB433A6A13403A68527A11007A695200ED
:100A400091400A0013433B623B69DB43FA69134060
:100A50003A68D27911007A6991400A001343FB6128
:100A60003B695B003B61FB689B00FB60BB685B0014
:100A7000BB607B6901337B61BB695B08BB61BB69A0
:100A8000002B83D17B687A6B5A607B683A6B9A60E3
:100A90007B68FA6ADA607B68BA6A1A617B687A6A8C
:100AA0005A617B683A6A9A617B68FA69DA61C04682
:100AB000BD460EB080BDC0460100010000224308C3
:100AC0008B4274D303098B425FD3030A8B4244D316
:100AD000030B8B4228D3030C8B420DD3FF22090258
:100AE00012BA030C8B4202D31212090265D0030B17
:100AF0008B4219D300E0090AC30B8B4201D3CB030D
:100B0000C01A5241830B8B4201D38B03C01A52414E
:100B1000430B8B4201D34B03C01A5241030B8B4250
:100B200001D30B03C01A5241C30A8B4201D3CB023B
:100B3000C01A5241830A8B4201D38B02C01A524120
:100B4000430A8B4201D34B02C01A5241030A8B4223
:100B500001D30B02C01A5241CDD2C3098B4201D33B
:100B6000CB01C01A524183098B4201D38B01C01AB9
:100B7000524143098B4201D34B01C01A5241030930
:100B80008B4201D30B01C01A5241C3088B4201D3DF
:100B9000CB00C01A524183088B4201D38B00C01A8C
:100BA000524143088B4201D34B00C01A5241411AB3
:100BB00000D20146524110467047FFE701B50020C0
:100BC00000F006F802BDC0460029F7D076E770476E
:100BD0007047C0465E050000B6050000B60500007F
:100BE000B6050000B6050000B6050000B605000019
:100BF000B6050000B6050000B6050000B605000009
:100C00009C050000F0040000B6050000B6050000D9
:100C1000B6050000B6050000F0040000B6050000AF
:100C2000B6050000B6050000B6050000B6050000D8
:100C3000B6050000B6050000B6050000B6050000C8
:100C400084050000B605000014050000B60500008C
:100C5000B605000038050000737464696F2E633AAE
:100C600020696E637265617365204D41585F53540E
:100C700052494E475F53495A450A0D0031393836BB
:100C80005645315420737461727465640D0A000016
:100C9000436F6D70696C65643A20000046656220A0
:100CA00032352032303230002020000031303A33EB
:0C0CB000313A3230000000000D0A000054
:100CBC0080B588B000AF234880F30888134B3B61A4
:100CCC00134BFB60134BBB60FB687B6007E03A691E
:100CDC00131D3B617B68191D796012681A60BA6834
:100CEC007B689A42F3D80C4BFB610C4BBB61FB69E4
:100CFC007B6104E07B691A1D7A6100221A60BA6973
:100D0C007B699A42F6D8FFF737FDFEE7540D0000D9
:100D1C00000000202C0400202C0400202C040020B7
:100D2C0080B500AFFEE780B500AFFEE780B500AF41
:100D3C00FEE780B500AFFEE780B500AFFEE780B5FB
:080D4C0000AFFEE7008000206B
:100D5400000000000000000001000000000000008E
:100D6400000000000000000000000000000000007F
:100D7400000000000000000000000000000000006F
:100D8400000000000000000000000000000000005F
:100D9400000000000000000000000000000000004F
:0C1174000000000000000000000000204F
:0400000300000CBD30
:00000001FF
