:020000040800F2
:1000000000800020C1000008330100083901000809
:100010003F010008450100084B01000800000000F6
:100020000000000000000000000000005101000876
:1000300057010008000000005D010008E5150008F8
:10004000E11C00082D0100088925000800000000BF
:10005000000000002D0100082D0100082D010008FE
:100060002D010008000000002D0100082D010008EE
:100070002D010008000000004D1C0008850D00083F
:10008000850B00082D010008000000002D0100086C
:100090002D0100080000000000000000000000002A
:1000A0000000000000000000000000002D0100081A
:1000B0002D0100082D0100082D0100082D01000868
:1000C00080B588B000AF144B3B61144BFB60144B00
:1000D000BB60FB687B6007E03A69131D3B617B688E
:1000E000191D796012681A60BA687B689A42F3D861
:1000F0000C4BFB610C4BBB61FB697B6104E07B69D2
:100100001A1D7A6100221A60BA697B699A42F6D890
:1001100001F024FDFEE700BF1E3200080018002099
:1001200018180020181800209458002080B400AF40
:10013000FEE780B400AFFEE780B400AFFEE780B416
:1001400000AFFEE780B400AFFEE780B400AFFEE78B
:1001500080B400AFFEE780B400AFFEE780B400AF2C
:08016000FEE780B400AFFEE7EA
:1001680081F0004102E000BF83F0004330B54FEA60
:1001780041044FEA430594EA050F08BF90EA020FCD
:100188001FBF54EA000C55EA020C7FEA645C7FEA60
:10019800655C00F0E2804FEA5454D4EB5555B8BF83
:1001A8006D420CDD2C4480EA020281EA030382EAF4
:1001B800000083EA010180EA020281EA0303362D86
:1001C80088BF30BD11F0004F4FEA01314FF4801C59
:1001D8004CEA113102D0404261EB410113F0004F6B
:1001E8004FEA03334CEA133302D0524263EB430322
:1001F80094EA050F00F0A780A4F10104D5F1200EC0
:100208000DDB02FA0EFC22FA05F2801841F100011A
:1002180003FA0EF2801843FA05F359410EE0A5F1EE
:1002280020050EF1200E012A03FA0EFC28BF4CF01F
:10023800020C43FA05F3C01851EBE37101F00045D5
:1002480007D54FF0000EDCF1000C7EEB00006EEBE2
:100258000101B1F5801F1BD3B1F5001F0CD349086C
:100268005FEA30004FEA3C0C04F101044FEA4452C3
:1002780012F5800F80F09A80BCF1004F08BF5FEA4A
:10028800500C50F1000041EB045141EA050130BD2A
:100298005FEA4C0C404141EB010111F4801FA4F1CD
:1002A8000104E9D191F0000F04BF01460020B1FA22
:1002B80081F308BF2033A3F10B03B3F120020CDA5A
:1002C8000C3208DD02F1140CC2F10C0201FA0CF038
:1002D80021FA02F10CE002F11402D8BFC2F1200C9D
:1002E80001FA02F120FA0CFCDCBF41EA0C01904053
:1002F800E41AA2BF01EB0451294330BD6FEA04049C
:100308001F3C1CDA0C340EDC04F11404C4F1200286
:1003180020FA04F001FA02F340EA030021FA04F398
:1003280045EA030130BDC4F10C04C4F1200220FAEF
:1003380002F001FA04F340EA0300294630BD21FA2D
:1003480004F0294630BD94F0000F83F4801306BFF3
:1003580081F480110134013D4EE77FEA645C18BFE7
:100368007FEA655C29D094EA050F08BF90EA020F7E
:1003780005D054EA000C04BF1946104630BD91EA76
:10038800030F1EBF0021002030BD5FEA545C05D179
:100398004000494128BF41F0004130BD14F58004B8
:1003A8003CBF01F5801130BD01F0004545F0FE412C
:1003B80041F470014FF0000030BD7FEA645C1ABF61
:1003C800194610467FEA655C1CBF0B46024650EA98
:1003D800013406BF52EA033591EA030F41F40021C4
:1003E80030BD00BF90F0000F04BF0021704730B54A
:1003F8004FF4806404F132044FF000054FF000011F
:1004080050E700BF90F0000F04BF0021704730B5DF
:100418004FF4806404F1320410F0004548BF4042B4
:100428004FF000013EE700BF42004FEAE2014FEA09
:1004380031014FEA02701FBF12F07F4393F07F4FE4
:1004480081F06051704732F07F4208BF704793F0E7
:100458007F4F04BF41F40021704730B54FF46074FA
:1004680001F0004521F000411CE700BF50EA0102FD
:1004780008BF704730B54FF000050AE050EA0102A6
:1004880008BF704730B511F0004502D5404261EB16
:1004980041014FF4806404F132045FEA915C3FF457
:1004A800D8AE4FF003025FEADC0C18BF03325FEAF4
:1004B800DC0C18BF033202EBDC02C2F1200300FAA5
:1004C80003FC20FA02F001FA03FE40EA0E0021FACA
:1004D80002F11444BDE600BF4FF0FF3C06E000BF48
:1004E8004FF0010C02E000BF4FF0010C4DF804CDB5
:1004F8004FEA410C7FEA6C5C4FEA430C18BF7FEA75
:100508006C5C1BD001B050EA410C0CBF52EA430CA2
:1005180091EA030F02BF90EA020F0020704710F122
:10052800000F91EA030F58BF994208BF90422CBFB1
:10053800D8176FEAE37040F0010070474FEA410CAA
:100548007FEA6C5C02D150EA013C07D14FEA430CC8
:100558007FEA6C5CD6D152EA033CD3D05DF8040B39
:10056800704700BF8446104662468C46194663466B
:1005780000E000BF01B5FFF7B7FF002848BF10F142
:10058800000F01BD4DF808EDFFF7F4FF0CBF012087
:1005980000205DF808FB00BF4DF808EDFFF7EAFF03
:1005A80034BF012000205DF808FB00BF4DF808EDBE
:1005B800FFF7E0FF94BF012000205DF808FB00BFB3
:1005C8004DF808EDFFF7CEFF94BF012000205DF83D
:1005D80008FB00BF4DF808EDFFF7C4FF34BF01204A
:1005E80000205DF808FB00BF80B500AF002000F0D8
:1005F800ABFA012000F0A8FA064B00221A60064B5D
:1006080000221A60054B00221A60032001F03EFF09
:1006180000BF80BD30180020181800201C180020CA
:1006280080B487B000AFF860B9607A602A4B1A6866
:100638002A4913465B0013449B000B440833FA68AD
:100648001A60254B1A68254913465B0013449B0022
:100658000B44BA681A60204B1A68204913465B009D
:1006680013449B000B4404337A681A601A4B1B68C6
:100678007B61194B1B680133174A1360164B1B68C3
:10068800C3F30903144A1360134B1A68144B1B680D
:100698009A421CD1124B1B680133114A1360104B4C
:1006A8001B68C3F309030E4A13600C497A691346A1
:1006B8005B0013449B000B441B6843F01001074880
:1006C8007A6913465B0013449B000344196000BF1A
:1006D8001C37BD4680BC7047181800203424002001
:1006E8001C18002080B483B000AF00237B60314B1E
:1006F8001A68314B1B689A4206D1304B1B6823F0AD
:1007080000432E4A136051E07A6813465B00134495
:100718009B000433294A13443B6039E07B68FF2B74
:100728003DD8254B19683A68131D3B6024480B4691
:100738005B000B449B0003441B6813601E4B196845
:100748003A68131D3B601E480B465B000B449B0038
:10075800034404331B681360174B19683A68131D68
:100768003B6017480B465B000B449B00034408336F
:100778001B681360104B1B6801330F4A13600E4B44
:100788001B68C3F309030C4A13607B6801337B6061
:10079800084B1A68084B1B689A42BFD100E000BF9B
:1007A8007B6843F00043054A136000BF0C37BD4621
:1007B80080BC7047181800201C1800203018002032
:1007C8003424002080B483B000AF0346FB71FB796A
:1007D80003F01F03012202FA03F1054A97F90730D3
:1007E8005B0942F8231000BF0C37BD4680BC704738
:1007F80000E100E080B5A8B000AFB34B00221A605A
:10080800B14B00229A60B04B00225A60AE4B0022D6
:10081800DA60AD4B00221A61AB4B00229A61AA4BF9
:1008280000225A61A84B0022DA61A84BDB69A74A6B
:1008380043F48003D361A54BDB69A44A43F00073FA
:10084800D361002387F89730002387F89830002376
:1008580087F89930002387F89A30002387F89B306F
:10086800022387F89C30032387F89D30012387F8FB
:100878009E30002387F896300523A7F8943007F1B7
:1008880094031946924801F0DDFA904BDB698F4AD0
:1008980043F40043D3618D4B5B6A8C4A23F47F4356
:1008A80053628A4B5B6A894A43F00073536241F290
:1008B8007073A7F880300023A7F87E300023A7F8CC
:1008C8007C300023A7F882300023A7F88430002367
:1008D800A7F886300023A7F888300223A7F88A30C3
:1008E8000023A7F88C300023A7F88E300023A7F840
:1008F80090300023A7F8923007F17C031946754819
:1009080001F0A6FB07F16403184601F044FC00233C
:10091800A7F864304FF40043A7F866300123A7F81E
:1009280078300123A7F87A3007F16403194669483B
:1009380001F0E7FB0223A7F8643007F164031946C6
:10094800644801F0DEFB07F15003184601F08EFC05
:100958000023A7F850300023A7F852300023A7F847
:1009680054300023A7F8563007F150031946594868
:1009780001F03EFC0223A7F8503007F15003194656
:10098800544801F035FC01224AF20201514801F0B5
:1009980091FC0F20FFF716FF002387F8473000234C
:1009A80087F84830002387F84930002387F84A3011
:1009B800002387F84B30022387F84C30032387F84D
:1009C8004D30012387F84E30002387F84630052341
:1009D800A7F8443007F1440319463F4801F032FABA
:1009E8003A4BDB69394A43F48033D361374B5B6A4E
:1009F800364A23F47F035362344B5B6A334A43F02D
:100A08008063536241F270733B860023FB850023A9
:100A1800BB8500237B860023BB860023FB8600233F
:100A28003B8702237B870023BB870023FB870023A8
:100A3800A7F840300023A7F8423007F12C031946E5
:100A4800264801F005FB07F11403184601F0A3FB43
:100A58000023BB824FF40043FB8201233B85012323
:100A68007B8507F1140319461C4801F04AFB012352
:100A7800BB8207F114031946184801F042FB3B46B4
:100A8800184601F0F3FB00233B8000237B80002302
:100A9800BB800023FB803B461946104801F0A8FBA9
:100AA80001233B803B4619460C4801F0A1FB01227B
:100AB80046F20201094801F0FDFB1020FFF782FE13
:100AC80000BFA037BD4680BD34540020000002405E
:100AD80000000B400080074000800C4000000840E8
:100AE80080B582B000AF78607B68002B0FD1134BC4
:100AF80000221A60114B00229A60104B00225A60A3
:100B08000E4B0022DA6001210D4801F0DDFA7B6806
:100B1800012B0FD1094B00221A61084B00229A6160
:100B2800064B00225A61054B0022DA610121054873
:100B380001F0CAFA00BF0837BD4680BD3454002012
:100B4800008007400000084080B582B000AF7860A0
:100B58007B68002B03D10021064801F0B5FA7B68B9
:100B6800012B03D10021044801F0AEFA00BF083779
:100B7800BD4680BD0080074000000840B0B584B085
:100B880000AF7A4B5B6DFB60784B00225A65774B60
:100B980000221A60FB6803F48043002B33D0032043
:100BA80000F05CFF724B9B69002B27D06F4B5A6F8C
:100BB8006E4B5B69D31ABB60B868FFF713FC4FF044
:100BC80000026C4BFFF706FD0346002B05D0684B6F
:100BD8005B6943F00403664A5361B868FFF702FC97
:100BE8004FF00002644BFFF7D7FC0346002B05D0FB
:100BF8005F4B5B6943F008035D4A53615C4B9B693B
:100C080001335B4A9361FB6803F40053002B5CD00B
:100C1800032000F023FF564B9B69002B27D0534B32
:100C28001A6F524B1B69D31A7B607868FFF7DAFB9F
:100C38004FF000024F4BFFF7CDFC0346002B05D0C9
:100C48004B4B5B6943F00403494A53617868FFF7EB
:100C5800C9FB4FF00002484BFFF79EFC0346002BF0
:100C680005D0434B5B6943F00803414A5361404B4D
:100C78009B69072B0CD83E4B1B693D4A9269C2F110
:100C88000702012101FA02F21343394A13610DE008
:100C9800374B9B691F2B09D8354B1B69344A92691E
:100CA800012101FA02F21343314A1361304BDB6927
:100CB800002B0CBF01230023DBB21A462C4BDA6150
:100CC8002B4B9B6901332A4A9361FB6803F00203AB
:100CD800002B42D0264B9B69002B43D0032000F009
:100CE800BDFE234B9B691F2B05D8214B5B6943F045
:100CF80041031F4A53611E4B9B69202B05D91C4B8E
:100D08005B6943F042031A4A5361194BDB69002BB4
:100D180005D1174B5B6943F06003154A5361144BC7
:100D28005B6943F48073124A5361114B1C69104B81
:100D38005D6900F09BFF03461A4629462046FFF7E7
:100D48006FFC0B4B00221A61094B00229A61084B79
:100D580000225A61064B0022DA61032000F0AAFE45
:100D680000BF00E000BF1037BD46B0BD000008401E
:100D78003454002000408F4000C08240B0B584B099
:100D880000AF794B5B6DFB60774B00225A65764B61
:100D980000221A60FB6803F40053002B5CD0022089
:100DA80000F05CFE714B9B68002B27D06E4B1A6FCE
:100DB8006D4B1B69D31ABB60B868FFF713FB4FF084
:100DC80000026B4BFFF706FC0346002B05D0674B70
:100DD8005B6843F00403654A5360B868FFF702FB99
:100DE8004FF00002634BFFF7D7FB0346002B05D0FB
:100DF8005E4B5B6843F008035C4A53605B4B9B683F
:100E0800072B0CD8594B1B68584A9268C2F1070245
:100E1800012101FA02F21343544A13600DE0534BC7
:100E28009B681F2B09D8514B1B68504A92680121B7
:100E380001FA02F213434D4A13604C4BDB68002B56
:100E48000CBF01230023DBB21A46484BDA60474B3C
:100E58009B680133454A9360FB6803F40043002B09
:100E680033D0022000F0FAFD404B9B68002B27D0BE
:100E78003D4B9A6F3C4B9B69D31A7B607868FFF7B0
:100E8800B1FA4FF000023A4BFFF7A4FB0346002BE0
:100E980005D0364B5B6843F00403344A53607868E6
:100EA800FFF7A0FA4FF00002324BFFF775FB03463D
:100EB800002B05D02D4B5B6843F008032B4A536089
:100EC8002A4B9B680133294A9360FB6803F00203AD
:100ED800002B40D0254B9B68002B41D0022000F00E
:100EE800BDFD224B9B681F2B05D8204B5B6843F048
:100EF80001031E4A53601D4B9B68202B05D91B4BD1
:100F08005B6843F00203194A5360184BDB68002BF7
:100F180005D1164B5B6843F02003144A5360134B0A
:100F28005B68124A5360114B1C68104B5D6800F0F7
:100F38009DFE03461A4629462046FFF771FB0B4BD8
:100F480000221A60094B00229A60084B00225A605E
:100F5800064B0022DA60022000F0ACFD00BF00E082
:100F680000BF1037BD46B0BD008007403454002094
:100F780000408F4000C0824080B584B000AF00239D
:100F8800FB7000233B7100237B710023BB7100239E
:100F9800FB7100233B7203237B720123BB72012385
:100FA800BB7006233B803B461946454800F04AFF84
:100FB800434B1B68424A23F0060313600023FB607F
:100FC80070E0404AFB684FF4856101FB03F313446A
:100FD80003F5806300221A603A4AFB684FF4856182
:100FE80001FB03F3134403F2044300221A60354A59
:100FF800FB684FF4856101FB03F3134403F5816338
:1010080000221A602F4AFB684FF4856101FB03F345
:10101800134403F20C4301221A602A4AFB684FF476
:10102800856101FB03F3134403F5826300221A6010
:10103800244AFB684FF4856101FB03F3134403F56D
:10104800846301221A601F4AFB684FF4856101FB23
:1010580003F3134403F21C4304221A60194AFB6881
:101068004FF4856101FB03F3134403F22443002288
:101078001A70144AFB684FF4856101FB03F31344AB
:1010880003F5836301221A600E4AFB684FF48561F9
:1010980001FB03F3134403F2144320221A70FB6884
:1010A8000133FB60FB68002B8BDD074B00221A70B5
:1010B800064B40F2EE225A6000BF1037BD4680BD95
:1010C80000800B40545400202018002010E000E05D
:1010D800B0B485B000AF78600123FB73414B1B7837
:1010E8001946414A4FF4856303FB01F3134403F2A5
:1010F80014431B78202B3FD13A4B1B7819463A4AA8
:101108004FF4856303FB01F3134403F583631B6802
:10111800012B31D10023BB6012E00122BB6802FA27
:1011280003F31A467B681340002B06D0FB7B002B89
:101138000CBF01230023DBB2FB73BB680133BB6028
:10114800284B1B781946284A4FF4856303FB01F3A3
:10115800134403F214431B78013BBA689A42DCDB60
:10116800FB7B002B04D07B6843F000437B6003E0EB
:101178007B6823F000437B601A4B1B7819461A4A98
:101188004FF4856303FB01F3134403F204431B6824
:10119800FF2B21D8134B1B781D46124B1B781A4680
:1011A80011494FF4856303FB02F30B4403F2044334
:1011B8001B68591C0C484FF4856404FB02F2024476
:1011C80002F20442116008494FF4857202FB05F2ED
:1011D80013447A6841F8232000BF1437BD46B0BCD9
:1011E800704700BF201800205454002080B582B0FA
:1011F80000AF786039600A4B1B781946094A4FF4EA
:10120800856303FB01F3134403F204437A681A600D
:101218003868FFF75DFF00BF0837BD4680BD00BFD7
:101228002018002054540020B0B400AF1A4B1B788B
:1012380019461A4A4FF4856303FB01F3134403F27A
:1012480004431B68FF2B21D8134B1B781D46124BF8
:101258001B781A4611494FF4856303FB02F30B44CC
:1012680003F204431B68591C0C484FF4856404FBC3
:1012780002F2024402F20442116008494FF48572F6
:1012880002FB05F2134451F8233000E0002318460E
:10129800BD46B0BC704700BF201800205454002041
:1012A80080B582B000AF7860094B1B781946094AAF
:1012B8004FF4856303FB01F3134403F204437A6894
:1012C8001A60FFF7B1FF034618460837BD4680BDD0
:1012D800201800205454002080B483B000AF7860F8
:1012E80039607B68002B48D0264B1B781946264A64
:1012F8004FF4856303FB01F3134403F580637A68B5
:101308001A60204B1B7819461F4A4FF4856303FB6C
:1013180001F3134403F20C433A681A60194B1B7823
:101328001946194A4FF4856303FB01F3134403F587
:10133800826300221A60134B1B781946124A4FF435
:10134800856303FB01F3134403F2244300221A705C
:101358000C4B1B7819460C4A4FF4856303FB01F3C9
:10136800134403F5816300221A60084B40F2EE2211
:101378005A60064B07221A6000E000BF0C37BD46D2
:1013880080BC7047201800205454002010E000E072
:1013980080B400AF084B1B781946084A4FF48563A0
:1013A80003FB01F3134403F2244301221A7000BF24
:1013B800BD4680BC704700BF201800205454002050
:1013C80080B483B000AF78607B68202B0DD9194BAF
:1013D8001B781946184A4FF4856303FB01F313443D
:1013E80003F2144320221A701FE07B68002B0DD1F2
:1013F800104B1B781946104A4FF4856303FB01F321
:10140800134403F2144301221A700EE0094B1B78AF
:1014180018467B68D9B2084A4FF4856303FB00F38A
:10142800134403F214430A461A7000BF0C37BD4632
:1014380080BC7047201800205454002080B400AFAE
:10144800084B1B781946084A4FF4856303FB01F3E0
:10145800134403F5836301221A6000BFBD4680BCB4
:10146800704700BF201800205454002080B400AFFB
:10147800084B1B781946084A4FF4856303FB01F3B0
:10148800134403F5836300221A6000BFBD4680BC85
:10149800704700BF201800205454002080B483B047
:1014A80000AF7860084B1B781946084A4FF48563EB
:1014B80003FB01F3134403F21C437A681A6000BF6C
:1014C8000C37BD4680BC70472018002054540020BB
:1014D80080B485B000AF78607A681346DB001344A7
:1014E800DB00FB60FB68002B0DD1194B1B781946FC
:1014F800184A4FF4856303FB01F3134403F584632F
:1015080001221A601FE0FB68B3F1807F0ED3104BF5
:101518001B7819460F4A4FF4856303FB01F3134404
:1015280003F584636FF07F421A600CE0084B1B7868
:101538001946084A4FF4856303FB01F3134403F586
:101548008463FA681A6000BF1437BD4680BC7047D0
:10155800201800205454002080B483B000AF786075
:101568007B68002B03D17B68DAB2034B1A7000BF8B
:101578000C37BD4680BC70472018002080B483B06B
:1015880000AF78600B46FB70FB78012202FA03F388
:101598001A467B681340002B0CD00F4B1B680E4A71
:1015A80023F0040313600C4B1B680B4A43F002033F
:1015B80013600BE0084B1B68074A23F00203136013
:1015C800054B1B68044A43F00403136000BF0C3743
:1015D800BD4680BC704700BF00800B4080B582B01C
:1015E80000AF00237B60012000F038FA974B1B788E
:1015F800012B09D1964B1B68954A23F0060313600B
:10160800924B00221A7019E1924B1B68002B12D1E1
:10161800914B1B68904A23F0010313608E4B40F2F4
:10162800EE225A608C4B00229A608B4B1B688A4AC8
:1016380043F001031360854B01221A70874A7B68C7
:101648004FF4856101FB03F3134403F214431B7841
:101658001A46804B1B689A4239D97E4B1B68072B68
:1016680022D87E4A7B684FF4856101FB03F313445B
:1016780003F214431B78202B16D1794B1B7818469C
:10168800764A7B684FF4857101FB03F3034452F8F3
:101698002320704B1B68DBB2C3F10703DBB219468A
:1016A8001046FFF76BFF12E06D4B1B7818466B4A2C
:1016B8007B684FF4857101FB03F3034452F8232040
:1016C800644B1B68DBB219461046FFF757FF614BA6
:1016D8001B6801335F4A1360604A7B684FF4856179
:1016E80001FB03F3134403F214431B7818465B4AC7
:1016F8007B684FF4856101FB03F3134403F21C4339
:101708001B68C218534B1B689A4280F09780514B54
:1017180000221A60524B1B780133DAB2504B1A7010
:101728004A4B00221A704E4B1B7818464B4A7B686E
:101738004FF4856101FB03F3134403F580631B68D1
:10174800984203D2464B1B78002B77D1444B00229A
:101758001A70424A7B684FF4856101FB03F3134416
:1017680003F582631B685A1C3C497B684FF485600B
:1017780000FB03F30B4403F582631A60364B1B68C6
:10178800354A23F001031360344A7B684FF48561BE
:1017980001FB03F3134403F20C431B68002B15D021
:1017A8002E4A7B684FF4856101FB03F3134403F56C
:1017B80082631A6829497B684FF4856000FB03F34C
:1017C8000B4403F20C431B689A420BD2234A7B68F2
:1017D8004FF4856101FB03F3134403F224431B78A0
:1017E800012B16D11D4A7B684FF4856101FB03F379
:1017F800134403F5826300221A60184A7B684FF489
:10180800856101FB03F3134403F2244300221A7099
:1018180014E0114A11497B684FF4856000FB03F31B
:101828000B4403F584631B6853600B4B00229A60DA
:10183800094B1B68084A43F001031360012000F0BC
:1018480039F900BF0837BD4680BD00BF2118002008
:1018580000800B402418002010E000E054540020C1
:101868002818002080B483B000AF03463960FB71AC
:1018780097F90730002B0BDA3B68DAB20C49FB7991
:1018880003F00F03043B5201D2B20B441A7609E06D
:101898003B68DAB2074997F907305201D2B20B44D4
:1018A80083F8002300BF0C37BD4680BC704700BFDB
:1018B80000ED00E000E100E080B400AF314B012210
:1018C8009A6000E000BF2F4B1B68002BFAD02D4B0D
:1018D8004FF48172DA602B4BDB692A4A43F0080324
:1018E800D361294B1B68284A23F038031360264B21
:1018F8001B68254A43F018031360224B40F2045238
:101908005A6000E000BF1F4B1B68002BFAD01D4B2C
:10191800DB681C4A43F00403D3601A4B5B68194A1E
:1019280043F03103536000E000BF164B1B68002BE7
:10193800FAD0144BDB69134A43F40013D361114BFB
:10194800DB69104A43F48003D3610E4BDB690D4A0F
:1019580043F40003D3610B4BDB690A4A43F08073FD
:10196800D361084BDB69074A43F00073D361054B29
:10197800DB69044A43F00053D36100BFBD4680BC15
:10198800704700BF000002400080014080B500AFF2
:1019980062B6124B4FF000629A60114B4FF0FF3263
:1019A800C3F880210E4B4FF0FF32C3F8802000218E
:1019B8000E20FFF757FF01210F20FFF753FF0121EA
:1019C8001020FFF74FFF02210220FFF74BFF0321F2
:1019D8000020FFF747FF00BF80BD00BF00ED00E01B
:1019E80000E100E080B500AF034B044A1A60042010
:1019F80000F04CFD00BF80BD7C580020DEFA0200DC
:101A080080B584B000AF0023FB7100233B72002334
:101A18007B720023BB720023FB7200233B730323FA
:101A28007B730123BB730123BB71C023BB803B1DA8
:101A38001946094800F006FA074B1B68064A23F0C6
:101A4800C0031360044B1B68034A43F04003136050
:101A580000BF1037BD4680BD00800C4080B483B005
:101A680000AF0346FB71FB79012202FA03F35AB275
:101A78000E4B1B785BB213435BB2DAB20B4B1A7096
:101A88000A4B1B78002B06D0094B1B68084A43F009
:101A98008003136005E0064B1B68054A23F08003AA
:101AA800136000BF0C37BD4680BC70472918002062
:101AB80000800C4080B483B000AF0346FB71FB7913
:101AC800012202FA03F35BB2DB435AB20E4B1B78D6
:101AD8005BB213405BB2DAB20B4B1A700A4B1B783D
:101AE800002B06D0094B1B68084A43F0800313609B
:101AF80005E0064B1B68054A23F08003136000BF0E
:101B08000C37BD4680BC70472918002000800C4067
:101B180080B584B000AF0023FB7100233B72002323
:101B28007B720023BB720023FB7200233B730323E9
:101B38007B730123BB730123BB71FF23BB803B1D58
:101B48001946034800F07EF900BF1037BD4680BD36
:101B580000800A4080B500AFFFF7AEFEFFF716FF22
:101B6800FFF74EFFFFF7D4FF00F024F8FFF704FA61
:101B7800FEF740FE00F0A4F8FEF736FDFFF732FF4F
:101B8800FEE7000080B483B000AF0346FB71FB7929
:101B980003F01F03012202FA03F1054A97F90730FF
:101BA8005B0942F8231000BF0C37BD4680BC704764
:101BB80000E100E080B586B000AF204BDB691F4A2A
:101BC80043F48043D3611D4B5B6A1C4A23F0FF0337
:101BD80053621A4B5B6A194A43F0807353624FF69B
:101BE800FF73BB8044F24F637B8000233B8000235C
:101BF800FB8000233B8100237B810023BB810223E0
:101C0800FB8100233B8200237B820023BB820023CD
:101C1800FB823B4619460A4800F01AFA01220221C3
:101C2800074800F047FB0E20FFF7ACFF01210448EE
:101C380000F04AFA00BF1837BD4680BD00000240D8
:101C48000000074080B400AF064B00225A65064BDF
:101C58001B6803F58033044A136000BFBD4680BC8F
:101C6800704700BF000007402C18002080B400AF68
:101C7800094B1B681B0C1B04074A1360074B1A68A7
:101C8800054B1B681343044A1360034B1B68184633
:101C9800BD4680BC704700BF2C18002000000740DC
:101CA80080B400AF044B00221A60044B00221A6073
:101CB80000BFBD4680BC7047000007402C180020BC
:101CC80080B500AF00F016FB024B01221A6000BF7E
:101CD80080BD00BF00E100E080B500AF012000F04A
:101CE800BFFB0346012B40F09380022001F06CF803
:101CF800524B1B68013B0F2B00F2868001A252F861
:101D080023F000BF4D1D0008591D0008651D00087F
:101D1800771D0008891D0008A11D0008B31D0008D3
:101D2800B91D0008C51D0008CB1D0008D11D0008FD
:101D3800DD1D0008E91D0008F51D0008011E00084A
:101D4800071E00083D4B5B681846FFF705FC5CE082
:101D58003A4B5B681846FFF7BBF956E0374B5A68B1
:101D6800364B9B6819461046FFF740FA4DE0FFF7DF
:101D78005BFA0246324B1A60022000F087FB44E00F
:101D88002E4B5B681846FFF78BFA02462C4B1A60FD
:101D9800022000F07BFB38E0284B5A68274B9B68F1
:101DA80019461046FFF798FA2FE0FFF7F1FA2CE0F2
:101DB800224B5B681846FFF703FB26E0FFF73EFB64
:101DC80023E0FFF753FB20E01C4B5B681846FFF746
:101DD80065FB1AE0194B5B681846FFF779FB14E0BE
:101DE800164B5B681846FEF77BFE0EE0134B5B68EC
:101DF8001846FEF7A9FE08E0FFF752FF05E0FFF7D7
:101E0800BBF8FEF7F7FC00E000BF012000F03EFB46
:101E1800032000F025FB0346012B04D1FEF762FCEA
:101E2800032000F033FB042000F01AFB0346012BCB
:101E380002D1042000F02AFB00BF80BD8858002092
:101E48008458002080B48FB000AF786039607B6818
:101E58005B687B637B689B683B637B68DB68FB62D2
:101E68007B681B69BB627B685B697B627B689B697B
:101E78003B627B68DB69FB6100237B6101233B617B
:101E88000323FB604FF00113BB603B681B88BB61F9
:101E980079E0BB6903F00103002B65D03B69DA43A5
:101EA8007B6B13403A68927811467A6901FA02F21C
:101EB80013437B63FB68DA433B6B13403A68127A3F
:101EC80011467A69520001FA02F213433B633B69F7
:101ED800DA43FB6A13403A68927A11467A6901FA42
:101EE80002F21343FB62BB68DA43BB6A13403A68E9
:101EF800D27811467A69103201FA02F213433A682D
:101F0800127911467A6901FA02F21343BB62BB687F
:101F1800DA437B6A13403A68527911467A6910327B
:101F280001FA02F213433A68927911467A6901FA82
:101F380002F213437B62FB68DA433B6A13403A6858
:101F4800527A11467A69520001FA02F213433B624F
:101F58003B69DA43FB6913403A68D27911467A69DA
:101F680001FA02F21343FB613B695B003B61FB68CA
:101F78009B00FB60BB685B00BB607B6901337B61D6
:101F8800BB695B08BB61BB69002B82D17B682F4AA8
:101F9800934202D16FF01F0201E04FF0FF327B6BDA
:101FA8001A407B685A607B68284A934202D16FF0D6
:101FB8001F0201E04FF0FF323B6B1A407B689A60CA
:101FC8007B68224A934202D16FF01F0201E04FF072
:101FD800FF32FB6A1A407B68DA607B681B4A9342CF
:101FE80002D16FF01F0201E04FF0FF32BB6A1A40C6
:101FF8007B681A617B68154A934202D16FF01F0211
:1020080001E04FF0FF327B6A1A407B685A617B68B7
:102018000E4A934202D16FF01F0201E04FF0FF32E7
:102028003B6A1A407B689A617B68084A934202D1EE
:102038006FF01F0201E04FF0FF32FB691A407B6826
:10204800DA6100BF3C37BD4680BC704700000C40D9
:1020580080B485B000AF786039603B681B881A4649
:102068007B681A603B685B881A467B685A603B68E5
:102078009B881A467B689A603B68DB881A463B68EF
:102088001B8913443A68528913443A689289134465
:102098003A68D2891344FB607B68FA68DA603B6867
:1020A8001B8A1B013A68528A13443A68928A13447D
:1020B8003A68D28A1344BB607B68BA681A6500BF65
:1020C8001437BD4680BC704780B485B000AF7860D7
:1020D8000B46FB707B68DB68FB60FB78002B04D049
:1020E800FB6843F00103FB6003E0FB6823F0010396
:1020F800FB607B68FA68DA6000BF1437BD4680BCB5
:10210800704780B487B000AF786039603B685B88FF
:102118001A463B68DB8813443A68128913443A68C4
:1021280052891A443B689B899B0113443A68D289B7
:1021380013443A68128A13447B613B689B88002BDE
:1021480003D07B6903F500537B613B681B88FB6008
:102158007B6803F12002FB689B0013447A691A60CC
:102168003B685B8A1A463B68DB8A13443B613B68E1
:102178009B8A002B02D03B6904333B617B6803F1E7
:102188006002FB689B0013443A691A6000BF1C3761
:10219800BD4680BC704780B483B000AF78607B6870
:1021A80000221A807B6800225A807B6800229A806D
:1021B8007B680022DA807B6800221A817B68002213
:1021C8005A817B6800229A817B680022DA817B68C9
:1021D80000221A827B6800225A827B6800229A8237
:1021E8007B680022DA8200BF0C37BD4680BC70478E
:1021F80080B487B000AF786039603B685B881A01AB
:102208003B689B889B0013443A68D2881A443B6811
:102218001B891B031A443B685B899B021A443B6871
:102228009B891B0213447B613B681B883B617B686D
:1022380003F130023B699B0013447A691A603B68DA
:10224800DB891B023A68128A13443A68528A13449B
:10225800FB607B6803F140023B699B001344FA680A
:102268001A6000BF1C37BD4680BC704780B483B07D
:1022780000AF78607B6800225A807B6800229A80D1
:102288007B680022DA807B6800221A817B68002242
:102298005A817B6800229A817B680022DA817B68F8
:1022A80000221A827B6800225A8200BF0C37BD4682
:1022B80080BC704780B487B000AFF860B96013463F
:1022C800FB71FB689B6D7B61FB79002B04D07A69FD
:1022D800BB6813437B6104E0BB68DB437A69134046
:1022E8007B61FB687A699A6500BF1C37BD4680BC74
:1022F8007047000080B400AF564BDB69554A43F085
:102308000403D361534B1B69524A43F4807313612E
:10231800504B1B6923F003034E4A43F00203136139
:102328004C4B5B6823F0F2034A4A43F03203536094
:10233800484B5B68474A23F002035360454B5B6890
:10234800444A43F00103536000BF424B1B6803F04B
:102358000103002BF9D03F4B1B693E4A43F00403AD
:1023680013613C4B1B693B4A23F0100313613A4B42
:10237800D3F88033384A43F00203C2F8803300BFF1
:10238800354BD3F8803303F00203002BF8D1324BDE
:10239800D3F88033304A23F00103C2F880332E4B40
:1023A800D3F880332C4A43F00803C2F880332A4B11
:1023B800D3F88033284A43F00403C2F88033264B0D
:1023C800D3F88033244A43F01003C2F88033224BF9
:1023D800D3F88033204A43F08003C2F880331E4B81
:1023E800D3F840311C4A43F03003C2F840311A4B4D
:1023F8000022C3F85021184BD3F84031164A43F055
:102408000103C2F84031144BD3F80031124A43F0AB
:102418000103C2F80031104BD3F800310E4A43F0E3
:102428000203C2F800310D4B04221A600A4BD3F89C
:102438004C31094A43F00103C2F84C31064BD3F83A
:102448004C31054A43F00403C2F84C3100BFBD4685
:1024580080BC7047000002400000014000E100E03D
:1024680080B483B000AF0346FB71FB79064A13447E
:10247800DB7ADBB2002B14BF01230023DBB2184642
:102488000C37BD4680BC70470018002080B485B06A
:1024980000AF0346FB71364B0422C3F88020354B4E
:1024A8009B7ADBB2FA799A4254D1FB79324AD35CEF
:1024B800022B37D1314BD3F80031304A43F00403B3
:1024C800C2F800312B4B1B889BB2402B09D9402303
:1024D800FB60284B1B889BB2403B9AB2254B1A8065
:1024E80006E0244B1B889BB2FB60224B00221A801B
:1024F800204B9B7ADAB2214BC3F8C021FB68013B21
:10250800FB6009E01B4B5B685A1C1A494A601B7840
:10251800DAB21A4BC3F8C021FB685A1EFA60002BC6
:10252800F0D10FE0154BD3F80031144A43F00403FF
:10253800C2F80031114BD3F8D031104A43F00103EF
:10254800C2F8D0310D4BD3F800310C4A43F00203E6
:10255800C2F80031FB79074A13440022DA72044BAF
:1025680004221A6000BF1437BD4680BC704700BF04
:1025780000E100E000180020742F0008000001406E
:1025880080B487B000AFBF4BD3F8483103F00403E1
:10259800002B37D0BB4BD3F84831BA4A43F0040379
:1025A800C2F84831B74B0022C3F85021B54BD3F8D5
:1025B8000031B44A23F00803C2F80031B14BD3F814
:1025C8009031B04A43F00103C2F89031AD4BD3F8D3
:1025D800D031AC4A43F00103C2F8D031A94BD3F84B
:1025E8000031A84A43F00203C2F80031A64B00228A
:1025F8005A72A54B00221A80A34B00221A72A24BD2
:1026080000229A729F4BD3F8483103F00103002B44
:1026180000F0CC839B4BD3F848319A4A43F001032E
:10262800C2F84831974BD3F8003103F00203002B6E
:1026380040F0BC83934BD3F8043103F02003002B04
:102648002CD0904BD3F800318E4A23F00803C2F8FF
:1026580000318C4BD3F890318A4A43F00103C2F819
:102668009031884BD3F8D031864A43F00103C2F841
:10267800D031844BD3F80031824A43F00203C2F8C8
:102688000031814B00225A727F4B00221A807E4B08
:1026980000221A727C4B00229A7287E3794BD3F896
:1026A800083103F00303002B40F06182754BD3F827
:1026B800043103F00403002B06D1724BD3F8043124
:1026C80003F00103002B08D06E4BD3F890316D4A0C
:1026D80043F00103C2F890315EE36B4B00225A725B
:1026E800694B00221A80684B00229A72654BD3F816
:1026F8008C31DBB2082B40F0AD81624BD3F804314A
:1027080003F08003002B40F0A5815F4A3B465360ED
:1027180000237B610BE05B4BD3F880115A4B5A685E
:102728007B691344CAB21A707B6901337B617B6988
:10273800072BF0D9534BD3F89031524A43F0010399
:10274800C2F890314F4BD3F8D0314E4A43F00103D1
:10275800C2F8D0313B7803F06003002B40F00B81C6
:102768007B78062B14D0092B00F0FE80052B00D0B7
:1027780070E17B887F2B00F26C817B88DAB2424B58
:102788001A72414B01225A723F4B00221A8060E1B3
:102798003B46023301331B78013B212B00F2E280D8
:1027A80001A252F823F000BF392800085B2800086E
:1027B800BF2800086D2900086D2900086D29000848
:1027C8006D2900086D2900086D2900086D29000889
:1027D8006D2900086D2900086D2900086D29000879
:1027E8006D2900086D2900086D2900086D29000869
:1027F8006D2900086D2900086D2900086D29000859
:102808006D2900086D2900086D2900086D29000848
:102818006D2900086D2900086D2900086D29000838
:102828006D2900086D2900086D2900089D280008F9
:10283800154B02225A72144B144A5A60FB88112B0A
:1028480003D8FA88104B1A808DE00F4B12221A8099
:1028580089E03B4602331B78002B00D010E00A4B7E
:1028680002225A72084B0A4A5A60FB881A2B03D86C
:10287800FA88054B1A8002E0034B1B221A8000BF1E
:1028880071E000BF0000014000180020042E00087D
:10289800D42E00089B4B02225A729A4B9A4A5A60CD
:1028A800FB88BB2B03D8FA88964B1A805BE0954BC4
:1028B800BC221A8057E03B4602331B78032B4FD8C3
:1028C80001A252F823F000BFE128000803290008FC
:1028D80025290008472900088A4B02225A72894B89
:1028E8008A4A5A60FB88032B03D8FA88854B1A80DA
:1028F80037E0844B04221A8033E0824B02225A725A
:10290800804B834A5A60FB88112B03D8FA887D4B89
:102918001A8026E07B4B12221A8022E0794B022291
:102928005A72784B7B4A5A60FB88152B03D8FA8871
:10293800744B1A8015E0734B16221A8011E0714B04
:1029480002225A726F4B744A5A60FB880D2B03D8C7
:10295800FA886C4B1A8004E06A4B0E221A8000E059
:1029680000BF00E000BF75E0664B01225A72654B5C
:1029780000221A806EE03B4602331A78614B9A7245
:102988003B78A12B1AD17B78012B17D13B46023318
:1029980001331B78032B11D15A4B9B7ADBB2002BE6
:1029A8000CD0584B9B7ADBB2042B07D8554B9B7A3B
:1029B800DBB21A46594B9B5C022B1DD03B78212B6E
:1029C80043D17B78092B40D13B46023301331B7836
:1029D800032B3AD14B4B9B7ADBB2002B35D0494BBA
:1029E8009B7ADBB2042B30D8464B9B7ADBB21A4673
:1029F8004A4B9B5C032B28D1424B9B7ADBB21A468D
:102A0800464B9A5C3F4B5A723E4B9B7ADBB21A4656
:102A1800434B53F822303B4A5360FA88394B9B7A30
:102A2800DBB219463F4B33F811309A4203D2FA8889
:102A3800344B1A800EE0334B9B7ADBB21A46394B83
:102A480033F812202F4B1A8004E02E4B00229A7282
:102A580000E000BF2B4B5B7ADBB2002B10D1324B6E
:102A6800D3F89031304A43F00103C2F890312E4B2D
:102A7800D3F800312C4A43F00803C2F800318BE147
:102A8800204B9B7ADBB2002B0AD01E4B9B7ADBB221
:102A98001A461C4B1344DB7ADBB2002B40F08581CD
:102AA800184B5B7ADBB2022B50D11F4BD3F80031A5
:102AB8001D4A43F00403C2F80031124B1B889BB235
:102AC800402B09D940233B610E4B1B889BB2403BEE
:102AD8009AB20C4B1A8006E00A4B1B889BB23B61EA
:102AE800084B00221A80074B9B7ADBB2002B27D0B9
:102AF800044B9B7ADAB20C4BC3F8C0213B69013B0B
:102B08003B611DE000180020182E0008F02E000878
:102B1800F42E0008082F0008202F0008742F000842
:102B2800302F00085C2F000800000140A14B5B68B3
:102B38005A1CA0494A601B78DAB29F4BC3F8C021DF
:102B48003B695A1E3A61002BF0D125E19A4BD3F824
:102B58000031994A43F00403C2F80031964BD3F888
:102B6800D031954A43F00103C2F8D03114E1924BB9
:102B7800D3F8083103F00303012B78D18E4BD3F837
:102B8800043103F04003002B00F006818A4BD3F890
:102B9800D031894A43F00103C2F8D031854B1B88F4
:102BA8009BB2002B32D0834B5B7ADBB2022B2DD148
:102BB800814BD3F80031804A83F00403C2F8003116
:102BC8007C4B1B889BB2402B09D94023FB60794B77
:102BD8001B889BB2403B9AB2764B1A8011E0754B2A
:102BE8001B889BB2FB60734B00221A8009E0714B73
:102BF8005B685A1C6F494A601B78DAB26E4BC3F89F
:102C0800C021FB685A1EFA60002BF0D1694B9B7AF1
:102C1800DBB2002B1BD0674B1B889BB2002B16D155
:102C2800644B9B7ADBB21A46644B9B5C032B0ED138
:102C3800604B9B7ADBB21A465E4B13440122DA7270
:102C48005C4B00229A725E4B0122C3F80021594B5B
:102C58001B7ADBB2002B00F09F80564B1B7ADAB24E
:102C6800554BC3F85021534B00221A7294E0524B33
:102C7800D3F8083103F00303022B40F08D804E4B4C
:102C8800D3F8043103F00403002B06D14A4BD3F8E0
:102C9800043103F00103002B08D0474BD3F89031DF
:102CA800454A43F00103C2F8903175E0414B1B8857
:102CB8009BB2002B47D03F4B5B7ADBB2032B42D150
:102CC8003D4BD3F88C31FB723A4B1B889AB2FB7A96
:102CD8009BB29A4209D9374B1B889AB2FB7A9BB2AE
:102CE800D31A9AB2334B1A8006E0324B1B889BB238
:102CF800FB72304B00221A802E4B9B7ADBB2002BE2
:102D08001CD02C4B5A682B4B9B7ADBB219462D4BA7
:102D180053F821309A4211D1274BD3F88031BB7236
:102D2800FB7A013BFB7209E0234BD3F88001214B6E
:102D38005B685A1C1F494A60C2B21A70FB7A5A1E55
:102D4800FA72002BF0D11B4B9B7ADBB2002B1BD005
:102D5800184B1B889BB2002B16D1164B9B7ADBB203
:102D68001A46164B9B5C022B0ED1124B9B7ADBB298
:102D78001A46104B13440122DA720E4B00229A7243
:102D88000F4B0122C3F800210B4BD3F890310A4AAC
:102D980043F00103C2F89031074BD3F80031064ADB
:102DA80043F00203C2F8003100E000BF1C37BD4603
:102DB80080BC70470018002000000140742F0008F4
:102DC80000E100E0302F000880B483B000AF034674
:102DD800FB71094B9B7ADBB2FA799A4201D1002345
:102DE80005E0FB79044A13440122DA7201231846EC
:102DF8000C37BD4680BC7047001800201201000245
:102E08000300FF40830426F1B80B01020301000010
:102E18000600FF0901A101850119012901150026F4
:102E2800FF007508960C00B10285021901290115E9
:102E38000026FF007508960400B1028503190129D0
:102E480001150026FF00750896040CB102850419C7
:102E5800012901150026FF007508960800B10285B2
:102E68000519012901150026FF007508960000B113
:102E780002850619012901150026FF00750896002C
:102E880000B102850719012901150026FF00750800
:102E9800960000B102850819012901150026FF00D6
:102EA8007508960000B10285091901290115002647
:102EB800FF007508960000B102850A19012901155D
:102EC8000026FF007508960000B102C009021B0029
:102ED8000101008032090400000003FFFF000921FE
:102EE8000100000122BC0000040309041203410090
:102EF80056004900410054004500530054000000AA
:102F080016034100720069006E00630053007400EC
:102F180065006E00640000000E0349004D0031009A
:102F28002D007600310000000000000088580020C5
:102F380084580020301800207C5800200000000031
:102F48000000000000000000000000000000000079
:102F58000000000000000D000500050C090001003C
:102F6800010001000100010001000000010302024C
:00000001FF
