:020000042010CA
:10340000903D1020113410200138FDD1704700008C
:103410000248016881F30888014800470034102001
:103420002337102000BFE549896920221142FAD1D3
:10343000E2490860704700BFE048806910210842F7
:10344000FAD1DE480068C0B2704710B500230024EE
:103450000BE0FFF7F0FF0246D94800788018D84902
:1034600008701B0A12069B18641C042CF1D3184622
:1034700010BD10B50346002404E0D8B2FFF7D2FF18
:103480001B0A641C042CF8DB10BD10B5CD48CE49D6
:1034900008610846006801210843CB4908600846D6
:1034A0000068FF21C1318843C7490860002422E039
:1034B000C6480068C4494860C4480068001DC34944
:1034C0000860C1480068FF21C1310843BE49086057
:1034D0000120FFF799FFBC48C068A100BC4A5050CA
:1034E000B9480068FF21C1318843B749086001200D
:1034F000FFF78AFF641C402CDADBB3480068400801
:103500004000B149086010BD10B5B2480468002CF5
:1035100001D1FFF7BAFFA100AD4A5058FFF7A9FF4C
:10352000641CA100AA4A5058FFF7A3FF641CA00620
:10353000800EA849086010BD70B50020A049087031
:10354000002405E0FFF781FFA100A14A5050641C50
:10355000402CF7D39B489C4908610846006801212C
:1035600008439949086008460068F72189018843A3
:1035700095490860002451E0944800680019924978
:103580004860084600684121890108438E49086067
:103590000620FFF739FF8C480068012149030843E2
:1035A000894908600B20FFF72FFF00251FE087489F
:1035B000006840190019844948606019800880003B
:1035C000834908588049886008460068802108437C
:1035D0007D4908603220FFF717FF7B480068802193
:1035E0008843794908600120FFF70EFF1035FF2D51
:1035F000DDD97548006801210903884372490860D4
:103600000620FFF701FF7048006881218901884387
:103610006D4908600120FFF7F7FE241D102CABD385
:1036200069480068400840006749086067480068CA
:10363000FF3001306549086061480078FFF7F2FE0D
:1036400070BD70B55F486049086108460068012197
:1036500008435D490860002430E05B48446000682E
:10366000B72189018843584908600846006831211C
:1036700089010843544908600620FFF7C5FE5248F7
:1036800000680121490308434F4908605248FFF789
:10369000BBFE4D4800680121890288434A49086001
:1036A0006E20FFF7B1FE48480068A12189018843D8
:1036B000454908600220FFF7A7FE241D102CCCD33B
:1036C000002419E0404844600068FF21C1310843EC
:1036D0003D4908600120FFF797FE3B48C568006838
:1036E000FF21C1318843384908600120FFF78CFE73
:1036F000681C00D004E0241D012040048442E1D372
:1037000000BF31480068400840002F49086045204C
:10371000FFF788FE2046FFF7ACFE2846FFF7A9FE1C
:1037200070BD49E0FFF787FE0446502C19D006DC37
:10373000412C1CD0452C11D0492C3CD104E0522CFA
:1037400024D0562C37D10FE0002404E02349085D33
:10375000FFF768FE641C0C2CF8DB2CE0FFF771FF10
:1037600029E0FFF7E9FE26E0FFF7CEFE23E0002088
:1037700013490870FFF769FE1449086000201549D5
:1037800008600F480078FFF74DFE14E05220FFF765
:1037900049FE4B204001FFF737FE1148C069012167
:1037A000C90608430E49C8610E48846BC8142043FB
:1037B0000C49886300BF00BFB4E70000000003406D
:1037C000083C10205155AA8A00800140003C10207E
:1037D0000C3C1020043C102050C30000E83710209F
:1037E0000000024000800D4031393836424F4F54BE
:1037F000554152540000000000000000000000008D
:0400000500000000F7
:00000001FF
